:1000000092C0ACC0ABC0AAC0A9C0A8C0A7C0A6C0BF
:10001000A5C0A4C0BDC1A2C0A1C0A0C09FC07C1F7C
:1000200002200220022002207C1F000000000000AD
:10003000000000007C1F001F82208220822082207E
:100040007C00000082208220822082207C1F7C0095
:1000500080008000800080007C1F7C008220822045
:1000600082208220001F7C1F82208220822082200A
:10007000001F7C0002000200020002007C1F7C1FA7
:1000800082208220822082207C1F7C00822082208D
:10009000822082207C1F0000F03F8C0082008C00B8
:1000A000F03F0000FE07001800200018FE070000C7
:1000B000FE1F0020001F0020FE1F0000FE3F000169
:1000C00080008000003F0000803F8000803F800073
:1000D000003F000000000030003000000000000081
:1000E0000000300630060000000080008000800024
:1000F0008000800080000000000000000000000080
:100100000000A81F2001DA028D14AFA1C80E0C0D4B
:10011000FF121112FF0E0A0DFF0E0A12FF0E0C1233
:10012000FF0E0B12FF0011241FBECFE5D2E0DEBF91
:10013000CDBF10E0A0E6B0E0E6E4F8E002C0059034
:100140000D92AA36B107D9F720E0AAE6B0E001C0C7
:100150001D92AE36B207E1F740D173C351CF282FBD
:10016000B89898E080E0880FC895BA98B0998160F7
:10017000BA9A9150C1F72111B89AC895BA98C89502
:10018000BA9A0895B89ABA98B898089598E087FFEF
:1001900002C0B89801C0B89ABA98C895BA9A880FA0
:1001A0009150A9F7C895B898BA98C895BA9A089581
:1001B0001F93CF93DF93E82FEE0FEE0FEE0F880F14
:1001C000880FCE2FC80F80E0E1DF80E0DFDFDCE0CA
:1001D000DC0F11E01C0FEC2FF0E0E25EFF4F84918A
:1001E000D5DFC12FD113F5CF80E0D0DF80E0DF91E4
:1001F000CF911F91CBCFB89ABA9AC8CFCF93DF9344
:10020000C82F80E8F8DF8C2FC1DFB898BA9881E852
:10021000F2DF81E0A4DFC82F80E0A1DFD0E0DC2F97
:10022000CC27C82BAFDFCE01DF91CF910895CF93BC
:10023000C82F88E7E0DF80E4A9DF80E0CA3018F04B
:100240008F5FCA50FBCFB4DF8C2FB2DFCF919ACF34
:100250000F931F93CF93DF938C0188E7CCDF80E46B
:1002600095DFC4E6D0E02991399180E002171307A9
:1002700020F08F5F021B130BF9CF9ADF80E0CA36A4
:10028000D80789F7DF91CF911F910F917BCFEF9224
:10029000FF920F931F93CF93DF938C0188E7ABDF1F
:1002A00080E474DF80E6E82E80E0F82EC0E0D0E045
:1002B000F701219131917F0180E00217130728F0A7
:1002C0008F5F021B130BD1E0F8CFD11103C0C430F4
:1002D00009F082E16DDFCF5FC53051F7DF91CF913B
:1002E0001F910F91FF90EF904DCFCF93DF93EC01D3
:1002F00088E781DF80E44ADFFE0184918F3F19F0B7
:1003000057DF2196F9CFDF91CF913CCFCF93C82F04
:1003100088E771DF80E43ADF8C2F4ADFCF9132CF5C
:10032000CF93DF93C82FD62F88E765DF80E02EDFDD
:1003300082E22CDF8D2F2ADF81E08D0F27DF8C2FCB
:100340008F7024DF8C2F82958F7080611FDF8D2F3F
:10035000806B1CDFDF91CF9115CFCF9360E080E001
:10036000DFDF88E748DF80E411DFC0E080E00EDFF8
:10037000C150E1F707DF62E080E0D2DF88E73BDFD2
:1003800080E404DF80E002DFC150E1F7CF91FACED4
:100390001F920F920FB60F9211248F939F93AF93DA
:1003A000BF9380916A0090916B00A0916C00B09116
:1003B0006D000196A11DB11D80936A0090936B00A2
:1003C000A0936C00B0936D00BF91AF919F918F91FE
:1003D0000F900FBE0F901F901895CF93DF93CDB75E
:1003E000DEB7A4970FB6F894DEBF0FBECDBF88E08E
:1003F00088BB8CE789BD82E08ABD83E083BF80E152
:1004000089BF789487B38A7F87BB88B38A7F88BB8C
:1004100080E8F1DE80E0BADE86E0B8DE87E6B6DEB0
:10042000B1DE80E8E8DE85E0B1DE84E1AFDE80E0C9
:10043000ADDEA8DE88E7DFDE80E0A8DE22E031E086
:100440003A8329830DE011E0E981FA8184919EDEEF
:1004500029813A812F5F3F4F3A832983021713077F
:1004600099F790DE7ADFF89440906A0050906B0024
:1004700060906C0070906D00789431E03CA31BA2FA
:100480001D8A1E8A1F8A188E19821A821B821C825C
:10049000198A1A8A1B8A1C8A188A1F868FEF9FEF77
:1004A0009E878D871C861B86AFEFBFEFBA87A98713
:1004B00018861F82EFEFFFEFFE83ED8338EE832E69
:1004C00033E0932EA12CB12C82E098DE969587958F
:1004D0001C01FCEF2F2284E091DE8C0197FF02C00B
:1004E00000E010E0A80160E070E0C101A0E0B0E031
:1004F000498F5A8F6B8F7C8F9A01AB01BC01CD0164
:1005000051D1A50194017BD169017A013E8F2D8FD4
:10051000F89480916A0090916B00A0916C00B0916A
:100520006D008F8F98A3A9A3BAA378948419950915
:10053000A609B7092C013D0189899A89AB89BC8933
:10054000840D951DA61DB71D898B9A8BAB8BBC8B1B
:10055000A3019201698D7A8D8B8D9C8D23D120E131
:100560003EE040E050E04BD189819A81AB81BC8173
:10057000820F931FA41FB51F89839A83AB83BC830B
:10058000C701B60188279927A30192010BD120E169
:100590003EE040E050E033D18D899E89AF89B88D2F
:1005A000820F931FA41FB51F8D8B9E8BAF8BB88FAF
:1005B000AD81BE812A163B0610F43E822D82EF816A
:1005C000F885E215F30510F438862F8229853A85DF
:1005D0000217130710F41A8709878B859C858017EB
:1005E000910710F41C870B87AD85BE85ED8DFE8DC0
:1005F000EA17FB0710F4DE86CD862F8538898D8DAE
:100600009E8D2817390710F4D88ACF86B3990DC06C
:100610009CA191110CC0ABA1AF5FABA3A53008F0BA
:100620001BA29BDEB1E0BCA304C01CA202C0E1E09F
:10063000ECA3FBA1F23009F46DC020F5FF2309F40F
:1006400048C0F13009F0A0C060E080E069DE8D8133
:100650009E811DDE81E191E048DE8F81988517DE65
:1006600081E291E042DE62E080E05ADE89859A858F
:100670000EDE81E191E039DE8B859C8508DE89E123
:1006800091E056C02BA1233009F454C0243009F066
:100690007BC069897A898B899C89A5019401AFD037
:1006A000890161E080E23CDEC80160E17EE093D038
:1006B0008C01862FBCDD80E129DEC8016CE370E08F
:1006C0008AD0182F862FB3DD80E120DE812FAFDDA9
:1006D0005BC060E080E024DEC101D9DD81E291E011
:1006E00004DEC601D4DD8DE191E0FFDD62E080E053
:1006F00017DEC801CCDD89E191E0F7DD69817A81FF
:100700008B819C81A50194017AD0C901C0DD85E16E
:1007100091E00EC061E080E003DE8D859E85B7DD4F
:1007200081E191E0E2DD8F859889B1DD8DE191E095
:10073000DCDD2AC060E080E1F3DD69817A818B81B4
:100740009C81A50194015BD06B017C01C9019FDDF7
:100750008FE0DCDDC6017CDD85E191E0C6DD62E095
:1007600080E1DEDD6D897E898F89988DA5019401F8
:1007700046D06B017C01C9018ADD8FE0C7DDC6016F
:1007800067DD8DE091E0D4CF3FEF80E792E031501C
:1007900080409040E1F700C000004F8C58A069A055
:1007A0007AA092CEEE27FF27AA27BB2708C0A20F68
:1007B000B31FE41FF51F220F331F441F551F9695CB
:1007C00087957795679598F37040A9F7009799F703
:1007D000BD01CF010895AA1BBB1B51E107C0AA1F91
:1007E000BB1FA617B70710F0A61BB70B881F991FD2
:1007F0005A95A9F780959095BC01CD010895A1E285
:100800001A2EAA1BBB1BFD010DC0AA1FBB1FEE1F8A
:10081000FF1FA217B307E407F50720F0A21BB30BD5
:10082000E40BF50B661F771F881F991F1A9469F751
:1008300060957095809590959B01AC01BD01CF01AD
:060840000895F894FFCFBB
:0A0846001027E80364000A00010017
:00000001FF
